{
  "contractName": "ItemManager",
  "abi": [
    {
      "anonymous": false,
      "inputs": [
        {
          "indexed": false,
          "internalType": "uint256",
          "name": "_itemIndex",
          "type": "uint256"
        },
        {
          "indexed": false,
          "internalType": "uint256",
          "name": "_step",
          "type": "uint256"
        },
        {
          "indexed": false,
          "internalType": "address",
          "name": "_itemAddress",
          "type": "address"
        }
      ],
      "name": "SupplyChainStep",
      "type": "event"
    },
    {
      "inputs": [],
      "name": "isOwner",
      "outputs": [
        {
          "internalType": "bool",
          "name": "",
          "type": "bool"
        }
      ],
      "stateMutability": "view",
      "type": "function"
    },
    {
      "inputs": [
        {
          "internalType": "uint256",
          "name": "",
          "type": "uint256"
        }
      ],
      "name": "items",
      "outputs": [
        {
          "internalType": "contract Item",
          "name": "_item",
          "type": "address"
        },
        {
          "internalType": "string",
          "name": "_identifier",
          "type": "string"
        },
        {
          "internalType": "uint256",
          "name": "_itemPrice",
          "type": "uint256"
        },
        {
          "internalType": "enum ItemManager.SupplyChainState",
          "name": "_state",
          "type": "uint8"
        }
      ],
      "stateMutability": "view",
      "type": "function"
    },
    {
      "inputs": [
        {
          "internalType": "string",
          "name": "_identifier",
          "type": "string"
        },
        {
          "internalType": "uint256",
          "name": "_itemPrice",
          "type": "uint256"
        }
      ],
      "name": "createItem",
      "outputs": [],
      "stateMutability": "nonpayable",
      "type": "function"
    },
    {
      "inputs": [
        {
          "internalType": "uint256",
          "name": "_itemIndex",
          "type": "uint256"
        }
      ],
      "name": "triggerPayment",
      "outputs": [],
      "stateMutability": "payable",
      "type": "function"
    },
    {
      "inputs": [
        {
          "internalType": "uint256",
          "name": "_itemIndex",
          "type": "uint256"
        }
      ],
      "name": "triggerDelivery",
      "outputs": [],
      "stateMutability": "nonpayable",
      "type": "function"
    },
    {
      "inputs": [],
      "name": "getItems",
      "outputs": [
        {
          "internalType": "uint256",
          "name": "total",
          "type": "uint256"
        }
      ],
      "stateMutability": "view",
      "type": "function"
    },
    {
      "inputs": [
        {
          "internalType": "uint256",
          "name": "_key",
          "type": "uint256"
        }
      ],
      "name": "returnMapValue",
      "outputs": [
        {
          "components": [
            {
              "internalType": "contract Item",
              "name": "_item",
              "type": "address"
            },
            {
              "internalType": "string",
              "name": "_identifier",
              "type": "string"
            },
            {
              "internalType": "uint256",
              "name": "_itemPrice",
              "type": "uint256"
            },
            {
              "internalType": "enum ItemManager.SupplyChainState",
              "name": "_state",
              "type": "uint8"
            }
          ],
          "internalType": "struct ItemManager.S_Item",
          "name": "",
          "type": "tuple"
        }
      ],
      "stateMutability": "view",
      "type": "function"
    },
    {
      "inputs": [
        {
          "internalType": "uint256",
          "name": "_key",
          "type": "uint256"
        }
      ],
      "name": "getValueAtMapping",
      "outputs": [
        {
          "internalType": "string",
          "name": "",
          "type": "string"
        },
        {
          "internalType": "uint256",
          "name": "",
          "type": "uint256"
        },
        {
          "internalType": "contract Item",
          "name": "",
          "type": "address"
        }
      ],
      "stateMutability": "view",
      "type": "function"
    }
  ],
  "bytecode": "0x60806040526046600355336000806101000a81548173ffffffffffffffffffffffffffffffffffffffff021916908373ffffffffffffffffffffffffffffffffffffffff1602179055506117c4806100586000396000f3fe60806040526004361061007b5760003560e01c80638c5517421161004e5780638c551742146101435780638f32d59b1461016c578063bfb231d214610197578063cd31831e146101d75761007b565b806303dae8a014610080578063410d59cc146100bf578063698a4b9a146100ea578063800fb83f14610127575b600080fd5b34801561008c57600080fd5b506100a760048036036100a29190810190610cc2565b610200565b6040516100b693929190610fde565b60405180910390f35b3480156100cb57600080fd5b506100d4610312565b6040516100e1919061109e565b60405180910390f35b3480156100f657600080fd5b50610111600480360361010c9190810190610cc2565b61031c565b60405161011e919061107c565b60405180910390f35b610141600480360361013c9190810190610cc2565b610478565b005b34801561014f57600080fd5b5061016a60048036036101659190810190610c6e565b610627565b005b34801561017857600080fd5b5061018161081f565b60405161018e9190610f40565b60405180910390f35b3480156101a357600080fd5b506101be60048036036101b99190810190610cc2565b610876565b6040516101ce9493929190610f92565b60405180910390f35b3480156101e357600080fd5b506101fe60048036036101f99190810190610cc2565b61096b565b005b60606000806001600085815260200190815260200160002060010160016000868152602001908152602001600020600201546001600087815260200190815260200160002060000160009054906101000a900473ffffffffffffffffffffffffffffffffffffffff16828054600181600116156101000203166002900480601f0160208091040260200160405190810160405280929190818152602001828054600181600116156101000203166002900480156102fe5780601f106102d3576101008083540402835291602001916102fe565b820191906000526020600020905b8154815290600101906020018083116102e157829003601f168201915b505050505092509250925092509193909250565b6000600254905090565b610324610b0a565b600160008381526020019081526020016000206040518060800160405290816000820160009054906101000a900473ffffffffffffffffffffffffffffffffffffffff1673ffffffffffffffffffffffffffffffffffffffff1673ffffffffffffffffffffffffffffffffffffffff168152602001600182018054600181600116156101000203166002900480601f0160208091040260200160405190810160405280929190818152602001828054600181600116156101000203166002900480156104315780601f1061040657610100808354040283529160200191610431565b820191906000526020600020905b81548152906001019060200180831161041457829003601f168201915b50505050508152602001600282015481526020016003820160009054906101000a900460ff16600281111561046257fe5b600281111561046d57fe5b815250509050919050565b346001600083815260200190815260200160002060020154146104d0576040517f08c379a00000000000000000000000000000000000000000000000000000000081526004016104c79061103c565b60405180910390fd5b600060028111156104dd57fe5b6001600083815260200190815260200160002060030160009054906101000a900460ff16600281111561050c57fe5b1461054c576040517f08c379a00000000000000000000000000000000000000000000000000000000081526004016105439061101c565b60405180910390fd5b600180600083815260200190815260200160002060030160006101000a81548160ff0219169083600281111561057e57fe5b02179055507fa4035636e99f06b7651a604c1019fa4e8779fe68ef27eeb74dff2de348f6199b6002546001600084815260200190815260200160002060030160009054906101000a900460ff1660028111156105d657fe5b6001600085815260200190815260200160002060000160009054906101000a900473ffffffffffffffffffffffffffffffffffffffff1660405161061c939291906110b9565b60405180910390a150565b61062f61081f565b61066e576040517f08c379a00000000000000000000000000000000000000000000000000000000081526004016106659061105c565b60405180910390fd5b6000606460035483028161067e57fe5b0490506000308260025460405161069490610b53565b6106a093929190610f5b565b604051809103906000f0801580156106bc573d6000803e3d6000fd5b5090508060016000600254815260200190815260200160002060000160006101000a81548173ffffffffffffffffffffffffffffffffffffffff021916908373ffffffffffffffffffffffffffffffffffffffff160217905550836001600060025481526020019081526020016000206001019080519060200190610742929190610b60565b508160016000600254815260200190815260200160002060020181905550600060016000600254815260200190815260200160002060030160006101000a81548160ff0219169083600281111561079557fe5b02179055507fa4035636e99f06b7651a604c1019fa4e8779fe68ef27eeb74dff2de348f6199b60025460016000600254815260200190815260200160002060030160009054906101000a900460ff1660028111156107ef57fe5b836040516107ff939291906110b9565b60405180910390a160026000815480929190600101919050555050505050565b60008060009054906101000a900473ffffffffffffffffffffffffffffffffffffffff1673ffffffffffffffffffffffffffffffffffffffff163373ffffffffffffffffffffffffffffffffffffffff1614905090565b60016020528060005260406000206000915090508060000160009054906101000a900473ffffffffffffffffffffffffffffffffffffffff1690806001018054600181600116156101000203166002900480601f0160208091040260200160405190810160405280929190818152602001828054600181600116156101000203166002900480156109485780601f1061091d57610100808354040283529160200191610948565b820191906000526020600020905b81548152906001019060200180831161092b57829003601f168201915b5050505050908060020154908060030160009054906101000a900460ff16905084565b61097361081f565b6109b2576040517f08c379a00000000000000000000000000000000000000000000000000000000081526004016109a99061105c565b60405180910390fd5b600160028111156109bf57fe5b6001600083815260200190815260200160002060030160009054906101000a900460ff1660028111156109ee57fe5b14610a2e576040517f08c379a0000000000000000000000000000000000000000000000000000000008152600401610a259061101c565b60405180910390fd5b60026001600083815260200190815260200160002060030160006101000a81548160ff02191690836002811115610a6157fe5b02179055507fa4035636e99f06b7651a604c1019fa4e8779fe68ef27eeb74dff2de348f6199b6002546001600084815260200190815260200160002060030160009054906101000a900460ff166002811115610ab957fe5b6001600085815260200190815260200160002060000160009054906101000a900473ffffffffffffffffffffffffffffffffffffffff16604051610aff939291906110b9565b60405180910390a150565b6040518060800160405280600073ffffffffffffffffffffffffffffffffffffffff168152602001606081526020016000815260200160006002811115610b4d57fe5b81525090565b6104bd806112d283390190565b828054600181600116156101000203166002900490600052602060002090601f016020900481019282601f10610ba157805160ff1916838001178555610bcf565b82800160010185558215610bcf579182015b82811115610bce578251825591602001919060010190610bb3565b5b509050610bdc9190610be0565b5090565b610c0291905b80821115610bfe576000816000905550600101610be6565b5090565b90565b600082601f830112610c1657600080fd5b8135610c29610c248261111d565b6110f0565b91508082526020830160208301858383011115610c4557600080fd5b610c5083828461125a565b50505092915050565b600081359050610c68816112ba565b92915050565b60008060408385031215610c8157600080fd5b600083013567ffffffffffffffff811115610c9b57600080fd5b610ca785828601610c05565b9250506020610cb885828601610c59565b9150509250929050565b600060208284031215610cd457600080fd5b6000610ce284828501610c59565b91505092915050565b610cf4816111ca565b82525050565b610d0381611181565b82525050565b610d12816111dc565b82525050565b610d2181611200565b82525050565b610d3081611200565b82525050565b610d3f81611224565b82525050565b610d4e81611224565b82525050565b6000610d5f82611154565b610d698185611170565b9350610d79818560208601611269565b610d828161129c565b840191505092915050565b6000610d9882611149565b610da2818561115f565b9350610db2818560208601611269565b610dbb8161129c565b840191505092915050565b6000610dd182611149565b610ddb8185611170565b9350610deb818560208601611269565b610df48161129c565b840191505092915050565b6000610e0c601c83611170565b91507f4974656d206973206675727468657220696e2074686520636861696e000000006000830152602082019050919050565b6000610e4c601b83611170565b91507f4f6e6c792066756c6c207061796d656e747320616363657074656400000000006000830152602082019050919050565b6000610e8c601583611170565b91507f596f7520617265206e6f7420746865206f776e657200000000000000000000006000830152602082019050919050565b6000608083016000830151610ed76000860182610d18565b5060208301518482036020860152610eef8282610d8d565b9150506040830151610f046040860182610f22565b506060830151610f176060860182610d36565b508091505092915050565b610f2b816111c0565b82525050565b610f3a816111c0565b82525050565b6000602082019050610f556000830184610cfa565b92915050565b6000606082019050610f706000830186610d09565b610f7d6020830185610f31565b610f8a6040830184610f31565b949350505050565b6000608082019050610fa76000830187610d27565b8181036020830152610fb98186610dc6565b9050610fc86040830185610f31565b610fd56060830184610d45565b95945050505050565b60006060820190508181036000830152610ff88186610d54565b90506110076020830185610f31565b6110146040830184610d27565b949350505050565b6000602082019050818103600083015261103581610dff565b9050919050565b6000602082019050818103600083015261105581610e3f565b9050919050565b6000602082019050818103600083015261107581610e7f565b9050919050565b600060208201905081810360008301526110968184610ebf565b905092915050565b60006020820190506110b36000830184610f31565b92915050565b60006060820190506110ce6000830186610f31565b6110db6020830185610f31565b6110e86040830184610ceb565b949350505050565b6000604051905081810181811067ffffffffffffffff8211171561111357600080fd5b8060405250919050565b600067ffffffffffffffff82111561113457600080fd5b601f19601f8301169050602081019050919050565b600081519050919050565b600081519050919050565b600082825260208201905092915050565b600082825260208201905092915050565b60008115159050919050565b600081905061119b826112ad565b919050565b600073ffffffffffffffffffffffffffffffffffffffff82169050919050565b6000819050919050565b60006111d582611236565b9050919050565b60006111e7826111ee565b9050919050565b60006111f9826111a0565b9050919050565b600061120b82611212565b9050919050565b600061121d826111a0565b9050919050565b600061122f8261118d565b9050919050565b600061124182611248565b9050919050565b6000611253826111a0565b9050919050565b82818337600083830152505050565b60005b8381101561128757808201518184015260208101905061126c565b83811115611296576000848401525b50505050565b6000601f19601f8301169050919050565b600381106112b757fe5b50565b6112c3816111c0565b81146112ce57600080fd5b5056fe608060405234801561001057600080fd5b506040516104bd3803806104bd8339818101604052606081101561003357600080fd5b81019080805190602001909291908051906020019092919080519060200190929190505050816000819055508060028190555082600360006101000a81548173ffffffffffffffffffffffffffffffffffffffff021916908373ffffffffffffffffffffffffffffffffffffffff160217905550505050610404806100b96000396000f3fe6080604052600436106100385760003560e01c80632986c0e51461030e5780633c8da5881461033957806389794d0014610364576102ff565b366102ff576000600154146100b5576040517f08c379a00000000000000000000000000000000000000000000000000000000081526004018080602001828103825260148152602001807f4974656d206973207061696420616c726561647900000000000000000000000081525060200191505060405180910390fd5b346000541461012c576040517f08c379a000000000000000000000000000000000000000000000000000000000815260040180806020018281038252601a8152602001807f4f6e6c792066756c6c207061796d656e747320616c6c6f77656400000000000081525060200191505060405180910390fd5b346001600082825401925050819055506000600360009054906101000a900473ffffffffffffffffffffffffffffffffffffffff1673ffffffffffffffffffffffffffffffffffffffff1634600254604051602401808281526020019150506040516020818303038152906040527f800fb83f000000000000000000000000000000000000000000000000000000007bffffffffffffffffffffffffffffffffffffffffffffffffffffffff19166020820180517bffffffffffffffffffffffffffffffffffffffffffffffffffffffff83818316178352505050506040518082805190602001908083835b6020831061023b5780518252602082019150602081019050602083039250610218565b6001836020036101000a03801982511681845116808217855250505050505090500191505060006040518083038185875af1925050503d806000811461029d576040519150601f19603f3d011682016040523d82523d6000602084013e6102a2565b606091505b50509050806102fc576040517f08c379a000000000000000000000000000000000000000000000000000000000815260040180806020018281038252602d8152602001806103a2602d913960400191505060405180910390fd5b50005b34801561030b57600080fd5b50005b34801561031a57600080fd5b5061032361038f565b6040518082815260200191505060405180910390f35b34801561034557600080fd5b5061034e610395565b6040518082815260200191505060405180910390f35b34801561037057600080fd5b5061037961039b565b6040518082815260200191505060405180910390f35b60025481565b60005481565b6001548156fe546865207472616e73616374696f6e207761736e2774207375636365737366756c2c2063616e63656c6c696e67a26469706673582212206eaf5894cfdb0e3450799d942ece80b2ce101bbdce4cfabe5ec0e6830cd9e26264736f6c63430006010033a2646970667358221220fbcf203979a4beffec07d80ddbad60955662c74d9dd3bc5c039b708b7fc0177864736f6c63430006010033",
  "source": "pragma solidity ^0.6.0;\r\npragma experimental ABIEncoderV2;\r\nimport \"@openzeppelin/contracts/payment/PaymentSplitter.sol\";\r\nimport \"./Ownable.sol\";\r\nimport \"./Item.sol\";\r\n\r\ncontract ItemManager is Ownable {\r\n    \r\n    enum SupplyChainState{Created, Paid, Delivered}\r\n    \r\n    struct S_Item {\r\n        Item _item;\r\n        //address payable NFSA2;\r\n        string _identifier;\r\n        uint _itemPrice;\r\n        ItemManager.SupplyChainState _state;\r\n    }\r\n    \r\n    mapping(uint => S_Item) public items;\r\n    uint itemIndex;\r\n    uint256 fee = 70;\r\n\r\n    //address payable NFSA = 0x66489F88F94775bb1116D52A21B2E3d2905EbdAc;\r\n\r\n    event SupplyChainStep(uint _itemIndex, uint _step, address _itemAddress);\r\n    \r\n    function createItem(string memory _identifier, uint _itemPrice) public onlyOwner {\r\n        uint256 _updatedPrice = (_itemPrice * fee / 100);\r\n        Item item = new Item(this, _updatedPrice, itemIndex);\r\n        items[itemIndex]._item = item;\r\n        //items[itemIndex].NFSA2 = NFSA;\r\n        items[itemIndex]._identifier = _identifier;\r\n        items[itemIndex]._itemPrice = _updatedPrice;\r\n        items[itemIndex]._state = SupplyChainState.Created;\r\n        emit SupplyChainStep(itemIndex, uint(items[itemIndex]._state), address(item));\r\n        itemIndex++;\r\n    }\r\n    \r\n    function triggerPayment(uint _itemIndex) public payable {\r\n        require(items[_itemIndex]._itemPrice == msg.value, \"Only full payments accepted\");\r\n        require(items[_itemIndex]._state == SupplyChainState.Created, \"Item is further in the chain\");\r\n        items[_itemIndex]._state = SupplyChainState.Paid;\r\n        emit SupplyChainStep(itemIndex, uint(items[_itemIndex]._state), address(items[_itemIndex]._item));\r\n    }\r\n    \r\n    function triggerDelivery(uint _itemIndex) public onlyOwner {\r\n        require(items[_itemIndex]._state == SupplyChainState.Paid, \"Item is further in the chain\");\r\n        items[_itemIndex]._state = SupplyChainState.Delivered;\r\n        emit SupplyChainStep(itemIndex, uint(items[_itemIndex]._state), address(items[_itemIndex]._item));\r\n    }\r\n\r\n    function getItems() public view returns(uint total){\r\n        return itemIndex;\r\n    }\r\n\r\n    function returnMapValue(uint _key) public view returns(S_Item memory) {\r\n        return items[_key];\r\n    }\r\n\r\n    function getValueAtMapping(uint _key)  public  view  returns(string memory, uint, Item) {\r\n      return (items[_key]._identifier, items[_key]._itemPrice, items[_key]._item);\r\n    }\r\n}",
  "sourcePath": "C:\\Users\\Scott\\Desktop\\Software Project - NFSA\\NFSA\\contracts\\ItemManager.sol",
  "compiler": {
    "name": "solc",
    "version": "0.6.1+commit.e6f7d5a4.Emscripten.clang"
  },
  "schemaVersion": "3.4.0",
  "updatedAt": "2021-05-24T05:56:55.240Z",
  "devdoc": {
    "methods": {}
  },
  "userdoc": {
    "methods": {}
  }
}