{
  "contractName": "Ownable",
  "abi": [
    {
      "inputs": [],
      "stateMutability": "nonpayable",
      "type": "constructor"
    },
    {
      "inputs": [],
      "name": "isOwner",
      "outputs": [
        {
          "internalType": "bool",
          "name": "",
          "type": "bool"
        }
      ],
      "stateMutability": "view",
      "type": "function"
    }
  ],
  "bytecode": "0x6080604052348015600f57600080fd5b5060008054600160a060020a0319163317905560b7806100306000396000f3fe6080604052348015600f57600080fd5b50600436106044577c010000000000000000000000000000000000000000000000000000000060003504638f32d59b81146049575b600080fd5b604f6063565b604080519115158252519081900360200190f35b60005473ffffffffffffffffffffffffffffffffffffffff1633149056fea26469706673582212204cc49b9ed2f860656851261b4249f26a6e97f63004fd901a9b859d95efead91064736f6c63430006010033",
  "source": "pragma solidity ^0.6.0;\r\n\r\ncontract Ownable {\r\n    address payable _owner;\r\n    \r\n    constructor() public {\r\n        _owner = msg.sender;\r\n    }\r\n    \r\n    modifier onlyOwner() {\r\n        require(isOwner(), \"You are not the owner\");\r\n        _;\r\n    }\r\n    \r\n    function isOwner() public view returns(bool) {\r\n        return (msg.sender == _owner);\r\n    }\r\n}",
  "sourcePath": "C:\\Users\\Scott\\Desktop\\Software Project - NFSA\\NFSA\\contracts\\Ownable.sol",
  "compiler": {
    "name": "solc",
    "version": "0.6.1+commit.e6f7d5a4.Emscripten.clang"
  },
  "schemaVersion": "3.4.0",
  "updatedAt": "2021-05-25T04:48:02.917Z",
  "devdoc": {
    "methods": {}
  },
  "userdoc": {
    "methods": {}
  }
}