{
  "contractName": "Counter",
  "abi": [
    {
      "inputs": [],
      "name": "value",
      "outputs": [
        {
          "internalType": "uint256",
          "name": "",
          "type": "uint256"
        }
      ],
      "stateMutability": "view",
      "type": "function",
      "constant": true
    },
    {
      "inputs": [
        {
          "internalType": "uint256",
          "name": "amount",
          "type": "uint256"
        }
      ],
      "name": "increase",
      "outputs": [],
      "stateMutability": "nonpayable",
      "type": "function"
    }
  ],
  "bytecode": "0x608060405234801561001057600080fd5b5060ce8061001f6000396000f3fe6080604052348015600f57600080fd5b5060043610604e577c0100000000000000000000000000000000000000000000000000000000600035046330f3f0db811460535780633fa4f24514606f575b600080fd5b606d60048036036020811015606757600080fd5b50356087565b005b60756092565b60408051918252519081900360200190f35b600080549091019055565b6000548156fea26469706673582212200fd9c8736c7f5f296046b83653cce1b215f36a00c02498cfd939f38c6fd4fd6a64736f6c63430006010033",
  "source": "pragma solidity ^0.6.0;\r\n\r\ncontract Counter {\r\n    uint256 public value;\r\n\r\n    function increase(uint256 amount) public {\r\n        value += amount;\r\n    }\r\n}",
  "sourcePath": "C:/Users/Scott/Desktop/Software Project - NFSA/NFSA/contracts/Counter.sol",
  "compiler": {
    "name": "solc",
    "version": "0.6.1+commit.e6f7d5a4.Emscripten.clang"
  },
  "schemaVersion": "3.4.0",
  "updatedAt": "2021-05-25T11:41:02.145Z",
  "networkType": "ethereum",
  "devdoc": {
    "methods": {}
  },
  "userdoc": {
    "methods": {}
  }
}