{
  "contractName": "Image",
  "abi": [
    {
      "inputs": [
        {
          "internalType": "uint256",
          "name": "",
          "type": "uint256"
        }
      ],
      "name": "ImageHashes",
      "outputs": [
        {
          "internalType": "string",
          "name": "",
          "type": "string"
        }
      ],
      "stateMutability": "view",
      "type": "function",
      "constant": true
    },
    {
      "inputs": [
        {
          "internalType": "uint256",
          "name": "",
          "type": "uint256"
        }
      ],
      "name": "ImageName",
      "outputs": [
        {
          "internalType": "string",
          "name": "",
          "type": "string"
        }
      ],
      "stateMutability": "view",
      "type": "function",
      "constant": true
    },
    {
      "inputs": [],
      "name": "numHashes",
      "outputs": [
        {
          "internalType": "uint256",
          "name": "",
          "type": "uint256"
        }
      ],
      "stateMutability": "view",
      "type": "function",
      "constant": true
    },
    {
      "inputs": [
        {
          "internalType": "string",
          "name": "_imgHash",
          "type": "string"
        }
      ],
      "name": "setHash",
      "outputs": [],
      "stateMutability": "nonpayable",
      "type": "function"
    },
    {
      "inputs": [
        {
          "internalType": "string",
          "name": "_imgName",
          "type": "string"
        }
      ],
      "name": "setName",
      "outputs": [],
      "stateMutability": "nonpayable",
      "type": "function"
    },
    {
      "inputs": [],
      "name": "getHash",
      "outputs": [
        {
          "internalType": "string[]",
          "name": "",
          "type": "string[]"
        }
      ],
      "stateMutability": "view",
      "type": "function",
      "constant": true
    },
    {
      "inputs": [
        {
          "internalType": "string",
          "name": "_imgHash",
          "type": "string"
        }
      ],
      "name": "set",
      "outputs": [],
      "stateMutability": "nonpayable",
      "type": "function"
    },
    {
      "inputs": [],
      "name": "get",
      "outputs": [
        {
          "internalType": "string",
          "name": "",
          "type": "string"
        }
      ],
      "stateMutability": "view",
      "type": "function",
      "constant": true
    },
    {
      "inputs": [
        {
          "internalType": "string",
          "name": "_imgHash",
          "type": "string"
        },
        {
          "internalType": "string",
          "name": "_imgName",
          "type": "string"
        }
      ],
      "name": "setImgHash",
      "outputs": [],
      "stateMutability": "nonpayable",
      "type": "function"
    },
    {
      "inputs": [
        {
          "internalType": "uint256",
          "name": "_index",
          "type": "uint256"
        }
      ],
      "name": "getImgHash",
      "outputs": [
        {
          "internalType": "string",
          "name": "",
          "type": "string"
        },
        {
          "internalType": "string",
          "name": "",
          "type": "string"
        }
      ],
      "stateMutability": "view",
      "type": "function",
      "constant": true
    }
  ],
  "bytecode": "0x608060405234801561001057600080fd5b50610cf2806100206000396000f3fe608060405234801561001057600080fd5b506004361061009e5760003560e01c80637d7ead00116100665780637d7ead0014610148578063863ab99914610164578063c47f002714610194578063d13319c4146101b0578063d61382dd146101ce5761009e565b80631ed83fd4146100a3578063348a71cb146100bf5780634ed3885e146100dd5780636abeb646146100f95780636d4ce63c1461012a575b600080fd5b6100bd60048036036100b891908101906108ad565b6101fe565b005b6100c7610249565b6040516100d49190610b63565b60405180910390f35b6100f760048036036100f291908101906108ad565b61024f565b005b610113600480360361010e919081019061095a565b610269565b604051610121929190610b2c565b60405180910390f35b6101326103db565b60405161013f9190610b0a565b60405180910390f35b610162600480360361015d91908101906108ee565b61047d565b005b61017e6004803603610179919081019061095a565b610505565b60405161018b9190610ae8565b60405180910390f35b6101ae60048036036101a991908101906108ad565b6105be565b005b6101b86105fd565b6040516101c59190610ac6565b60405180910390f35b6101e860048036036101e3919081019061095a565b6106e6565b6040516101f59190610ae8565b60405180910390f35b60028190806001815401808255809150506001900390600052602060002001600090919091909150908051906020019061023992919061079f565b5060028054905060018190555050565b60015481565b806000908051906020019061026592919061079f565b5050565b6060806003838154811061027957fe5b906000526020600020016002848154811061029057fe5b90600052602060002001818054600181600116156101000203166002900480601f01602080910402602001604051908101604052809291908181526020018280546001816001161561010002031660029004801561032f5780601f106103045761010080835404028352916020019161032f565b820191906000526020600020905b81548152906001019060200180831161031257829003601f168201915b50505050509150808054600181600116156101000203166002900480601f0160208091040260200160405190810160405280929190818152602001828054600181600116156101000203166002900480156103cb5780601f106103a0576101008083540402835291602001916103cb565b820191906000526020600020905b8154815290600101906020018083116103ae57829003601f168201915b5050505050905091509150915091565b606060008054600181600116156101000203166002900480601f0160208091040260200160405190810160405280929190818152602001828054600181600116156101000203166002900480156104735780601f1061044857610100808354040283529160200191610473565b820191906000526020600020905b81548152906001019060200180831161045657829003601f168201915b5050505050905090565b6002829080600181540180825580915050600190039060005260206000200160009091909190915090805190602001906104b892919061079f565b506003819080600181540180825580915050600190039060005260206000200160009091909190915090805190602001906104f492919061079f565b506002805490506001819055505050565b6002818154811061051257fe5b906000526020600020016000915090508054600181600116156101000203166002900480601f0160208091040260200160405190810160405280929190818152602001828054600181600116156101000203166002900480156105b65780601f1061058b576101008083540402835291602001916105b6565b820191906000526020600020905b81548152906001019060200180831161059957829003601f168201915b505050505081565b6003819080600181540180825580915050600190039060005260206000200160009091909190915090805190602001906105f992919061079f565b5050565b60606002805480602002602001604051908101604052809291908181526020016000905b828210156106dd578382906000526020600020018054600181600116156101000203166002900480601f0160208091040260200160405190810160405280929190818152602001828054600181600116156101000203166002900480156106c95780601f1061069e576101008083540402835291602001916106c9565b820191906000526020600020905b8154815290600101906020018083116106ac57829003601f168201915b505050505081526020019060010190610621565b50505050905090565b600381815481106106f357fe5b906000526020600020016000915090508054600181600116156101000203166002900480601f0160208091040260200160405190810160405280929190818152602001828054600181600116156101000203166002900480156107975780601f1061076c57610100808354040283529160200191610797565b820191906000526020600020905b81548152906001019060200180831161077a57829003601f168201915b505050505081565b828054600181600116156101000203166002900490600052602060002090601f016020900481019282601f106107e057805160ff191683800117855561080e565b8280016001018555821561080e579182015b8281111561080d5782518255916020019190600101906107f2565b5b50905061081b919061081f565b5090565b61084191905b8082111561083d576000816000905550600101610825565b5090565b90565b600082601f83011261085557600080fd5b813561086861086382610bab565b610b7e565b9150808252602083016020830185838301111561088457600080fd5b61088f838284610c52565b50505092915050565b6000813590506108a781610ca5565b92915050565b6000602082840312156108bf57600080fd5b600082013567ffffffffffffffff8111156108d957600080fd5b6108e584828501610844565b91505092915050565b6000806040838503121561090157600080fd5b600083013567ffffffffffffffff81111561091b57600080fd5b61092785828601610844565b925050602083013567ffffffffffffffff81111561094457600080fd5b61095085828601610844565b9150509250929050565b60006020828403121561096c57600080fd5b600061097a84828501610898565b91505092915050565b600061098f8383610a45565b905092915050565b60006109a282610be7565b6109ac8185610c15565b9350836020820285016109be85610bd7565b8060005b858110156109fa57848403895281516109db8582610983565b94506109e683610c08565b925060208a019950506001810190506109c2565b50829750879550505050505092915050565b6000610a1782610bfd565b610a218185610c37565b9350610a31818560208601610c61565b610a3a81610c94565b840191505092915050565b6000610a5082610bf2565b610a5a8185610c26565b9350610a6a818560208601610c61565b610a7381610c94565b840191505092915050565b6000610a8982610bf2565b610a938185610c37565b9350610aa3818560208601610c61565b610aac81610c94565b840191505092915050565b610ac081610c48565b82525050565b60006020820190508181036000830152610ae08184610997565b905092915050565b60006020820190508181036000830152610b028184610a7e565b905092915050565b60006020820190508181036000830152610b248184610a0c565b905092915050565b60006040820190508181036000830152610b468185610a0c565b90508181036020830152610b5a8184610a0c565b90509392505050565b6000602082019050610b786000830184610ab7565b92915050565b6000604051905081810181811067ffffffffffffffff82111715610ba157600080fd5b8060405250919050565b600067ffffffffffffffff821115610bc257600080fd5b601f19601f8301169050602081019050919050565b6000819050602082019050919050565b600081519050919050565b600081519050919050565b600081519050919050565b6000602082019050919050565b600082825260208201905092915050565b600082825260208201905092915050565b600082825260208201905092915050565b6000819050919050565b82818337600083830152505050565b60005b83811015610c7f578082015181840152602081019050610c64565b83811115610c8e576000848401525b50505050565b6000601f19601f8301169050919050565b610cae81610c48565b8114610cb957600080fd5b5056fea26469706673582212208aa9f02a9245c448d8ba7f5911f57369af745e4415f9bd9591b0996a5bd34fc164736f6c63430006010033",
  "source": "pragma solidity ^0.6.0;\r\npragma experimental ABIEncoderV2;\r\n\r\ncontract Image {\r\n    string imgHash;\r\n\r\n    /*uint public numHashes;\r\n    string [] public ImageHashes;\r\n\r\n    function setHash(string memory _imgHash) public {\r\n        ImageHashes.push(_imgHash);\r\n        numHashes = ImageHashes.length;\r\n    }\r\n\r\n    function getHash() public view returns(string[] memory){\r\n        return ImageHashes;\r\n    }\r\n\r\n    function set(string memory _imgHash) public {\r\n        imgHash =  _imgHash;\r\n    }\r\n\r\n    function get() public view returns(string memory){\r\n        return imgHash;\r\n    }*/\r\n    uint public numHashes;\r\n    string [] public ImageHashes;\r\n    string [] public ImageName;\r\n\r\n    function setHash(string memory _imgHash) public {\r\n        ImageHashes.push(_imgHash);\r\n        numHashes = ImageHashes.length;\r\n    }\r\n    \r\n    function setName(string memory _imgName) public {\r\n        ImageName.push(_imgName);\r\n    }\r\n\r\n    function getHash() public view returns(string[] memory){\r\n        return ImageHashes;\r\n    }\r\n\r\n    function set(string memory _imgHash) public {\r\n        imgHash =  _imgHash;\r\n    }\r\n\r\n    function get() public view returns(string memory){\r\n        return imgHash;\r\n    }\r\n    \r\n    function setImgHash(string memory _imgHash, string memory _imgName) public {\r\n        ImageHashes.push(_imgHash);\r\n        ImageName.push(_imgName);\r\n        numHashes = ImageHashes.length;\r\n    }\r\n\r\n    function getImgHash(uint _index) public view returns(string memory, string memory) {\r\n        return (ImageName[_index], ImageHashes[_index]); \r\n    }\r\n}\r\n\r\n\r\n\r\n\r\n/*\r\npragma solidity ^0.6.0;\r\n\r\ncontract Image {\r\n    string ipfsHash;\r\n\r\n    function set(string memory x) public {\r\n        ipfsHash = x;\r\n    }\r\n\r\n    function get() public view returns (string memory) {\r\n        return ipfsHash;\r\n    }\r\n}\r\n\r\n*/",
  "sourcePath": "C:/Users/Scott/Desktop/Software Project - NFSA/NFSA/contracts/Image.sol",
  "compiler": {
    "name": "solc",
    "version": "0.6.1+commit.e6f7d5a4.Emscripten.clang"
  },
  "schemaVersion": "3.4.0",
  "updatedAt": "2021-05-19T11:34:11.543Z",
  "networkType": "ethereum",
  "devdoc": {
    "methods": {}
  },
  "userdoc": {
    "methods": {}
  }
}