{
  "contractName": "Image",
  "abi": [
    {
      "inputs": [
        {
          "internalType": "uint256",
          "name": "",
          "type": "uint256"
        }
      ],
      "name": "ImageHashes",
      "outputs": [
        {
          "internalType": "string",
          "name": "",
          "type": "string"
        }
      ],
      "stateMutability": "view",
      "type": "function"
    },
    {
      "inputs": [],
      "name": "numHashes",
      "outputs": [
        {
          "internalType": "uint256",
          "name": "",
          "type": "uint256"
        }
      ],
      "stateMutability": "view",
      "type": "function"
    },
    {
      "inputs": [
        {
          "internalType": "string",
          "name": "_imgHash",
          "type": "string"
        }
      ],
      "name": "setHash",
      "outputs": [],
      "stateMutability": "nonpayable",
      "type": "function"
    },
    {
      "inputs": [],
      "name": "getHash",
      "outputs": [
        {
          "internalType": "string[]",
          "name": "",
          "type": "string[]"
        }
      ],
      "stateMutability": "view",
      "type": "function"
    },
    {
      "inputs": [
        {
          "internalType": "string",
          "name": "_imgHash",
          "type": "string"
        }
      ],
      "name": "set",
      "outputs": [],
      "stateMutability": "nonpayable",
      "type": "function"
    },
    {
      "inputs": [],
      "name": "get",
      "outputs": [
        {
          "internalType": "string",
          "name": "",
          "type": "string"
        }
      ],
      "stateMutability": "view",
      "type": "function"
    }
  ],
  "bytecode": "0x608060405234801561001057600080fd5b50610888806100206000396000f3fe608060405234801561001057600080fd5b50600436106100625760003560e01c80631ed83fd414610067578063348a71cb146100835780634ed3885e146100a15780636d4ce63c146100bd578063863ab999146100db578063d13319c41461010b575b600080fd5b610081600480360361007c91908101906104e6565b610129565b005b61008b610174565b60405161009891906106f9565b60405180910390f35b6100bb60048036036100b691908101906104e6565b61017a565b005b6100c5610194565b6040516100d291906106d7565b60405180910390f35b6100f560048036036100f09190810190610527565b610236565b60405161010291906106b5565b60405180910390f35b6101136102ef565b6040516101209190610693565b60405180910390f35b6002819080600181540180825580915050600190039060005260206000200160009091909190915090805190602001906101649291906103d8565b5060028054905060018190555050565b60015481565b80600090805190602001906101909291906103d8565b5050565b606060008054600181600116156101000203166002900480601f01602080910402602001604051908101604052809291908181526020018280546001816001161561010002031660029004801561022c5780601f106102015761010080835404028352916020019161022c565b820191906000526020600020905b81548152906001019060200180831161020f57829003601f168201915b5050505050905090565b6002818154811061024357fe5b906000526020600020016000915090508054600181600116156101000203166002900480601f0160208091040260200160405190810160405280929190818152602001828054600181600116156101000203166002900480156102e75780601f106102bc576101008083540402835291602001916102e7565b820191906000526020600020905b8154815290600101906020018083116102ca57829003601f168201915b505050505081565b60606002805480602002602001604051908101604052809291908181526020016000905b828210156103cf578382906000526020600020018054600181600116156101000203166002900480601f0160208091040260200160405190810160405280929190818152602001828054600181600116156101000203166002900480156103bb5780601f10610390576101008083540402835291602001916103bb565b820191906000526020600020905b81548152906001019060200180831161039e57829003601f168201915b505050505081526020019060010190610313565b50505050905090565b828054600181600116156101000203166002900490600052602060002090601f016020900481019282601f1061041957805160ff1916838001178555610447565b82800160010185558215610447579182015b8281111561044657825182559160200191906001019061042b565b5b5090506104549190610458565b5090565b61047a91905b8082111561047657600081600090555060010161045e565b5090565b90565b600082601f83011261048e57600080fd5b81356104a161049c82610741565b610714565b915080825260208301602083018583830111156104bd57600080fd5b6104c88382846107e8565b50505092915050565b6000813590506104e08161083b565b92915050565b6000602082840312156104f857600080fd5b600082013567ffffffffffffffff81111561051257600080fd5b61051e8482850161047d565b91505092915050565b60006020828403121561053957600080fd5b6000610547848285016104d1565b91505092915050565b600061055c8383610612565b905092915050565b600061056f8261077d565b61057981856107ab565b93508360208202850161058b8561076d565b8060005b858110156105c757848403895281516105a88582610550565b94506105b38361079e565b925060208a0199505060018101905061058f565b50829750879550505050505092915050565b60006105e482610793565b6105ee81856107cd565b93506105fe8185602086016107f7565b6106078161082a565b840191505092915050565b600061061d82610788565b61062781856107bc565b93506106378185602086016107f7565b6106408161082a565b840191505092915050565b600061065682610788565b61066081856107cd565b93506106708185602086016107f7565b6106798161082a565b840191505092915050565b61068d816107de565b82525050565b600060208201905081810360008301526106ad8184610564565b905092915050565b600060208201905081810360008301526106cf818461064b565b905092915050565b600060208201905081810360008301526106f181846105d9565b905092915050565b600060208201905061070e6000830184610684565b92915050565b6000604051905081810181811067ffffffffffffffff8211171561073757600080fd5b8060405250919050565b600067ffffffffffffffff82111561075857600080fd5b601f19601f8301169050602081019050919050565b6000819050602082019050919050565b600081519050919050565b600081519050919050565b600081519050919050565b6000602082019050919050565b600082825260208201905092915050565b600082825260208201905092915050565b600082825260208201905092915050565b6000819050919050565b82818337600083830152505050565b60005b838110156108155780820151818401526020810190506107fa565b83811115610824576000848401525b50505050565b6000601f19601f8301169050919050565b610844816107de565b811461084f57600080fd5b5056fea2646970667358221220703305cebd92cfbd2a0a2dd5b810c0318879829f10634965bd6fe17471eb722264736f6c63430006010033",
  "source": "pragma solidity ^0.6.0;\r\npragma experimental ABIEncoderV2;\r\n\r\ncontract Image {\r\n    string imgHash;\r\n\r\n    uint public numHashes;\r\n    string [] public ImageHashes;\r\n\r\n    function setHash(string memory _imgHash) public {\r\n        ImageHashes.push(_imgHash);\r\n        numHashes = ImageHashes.length;\r\n    }\r\n\r\n    function getHash() public view returns(string[] memory){\r\n        return ImageHashes;\r\n    }\r\n\r\n    function set(string memory _imgHash) public {\r\n        imgHash =  _imgHash;\r\n    }\r\n\r\n    function get() public view returns(string memory){\r\n        return imgHash;\r\n    }\r\n}\r\n\r\n\r\n\r\n\r\n/*\r\npragma solidity ^0.6.0;\r\n\r\ncontract Image {\r\n    string ipfsHash;\r\n\r\n    function set(string memory x) public {\r\n        ipfsHash = x;\r\n    }\r\n\r\n    function get() public view returns (string memory) {\r\n        return ipfsHash;\r\n    }\r\n}\r\n\r\n*/",
  "sourcePath": "C:/Users/Scott/Desktop/Software Project - NFSA/NFSA/contracts/Image.sol",
  "compiler": {
    "name": "solc",
    "version": "0.6.1+commit.e6f7d5a4.Emscripten.clang"
  },
  "schemaVersion": "3.4.0",
  "updatedAt": "2021-05-16T09:40:36.248Z",
  "devdoc": {
    "methods": {}
  },
  "userdoc": {
    "methods": {}
  }
}