{
  "contractName": "Image",
  "abi": [
    {
      "inputs": [
        {
          "internalType": "uint256",
          "name": "",
          "type": "uint256"
        }
      ],
      "name": "ImageHashes",
      "outputs": [
        {
          "internalType": "string",
          "name": "",
          "type": "string"
        }
      ],
      "stateMutability": "view",
      "type": "function",
      "constant": true
    },
    {
      "inputs": [
        {
          "internalType": "uint256",
          "name": "",
          "type": "uint256"
        }
      ],
      "name": "ImageName",
      "outputs": [
        {
          "internalType": "string",
          "name": "",
          "type": "string"
        }
      ],
      "stateMutability": "view",
      "type": "function",
      "constant": true
    },
    {
      "inputs": [],
      "name": "numHashes",
      "outputs": [
        {
          "internalType": "uint256",
          "name": "",
          "type": "uint256"
        }
      ],
      "stateMutability": "view",
      "type": "function",
      "constant": true
    },
    {
      "inputs": [
        {
          "internalType": "string",
          "name": "_imgHash",
          "type": "string"
        }
      ],
      "name": "setHash",
      "outputs": [],
      "stateMutability": "nonpayable",
      "type": "function"
    },
    {
      "inputs": [
        {
          "internalType": "string",
          "name": "_imgName",
          "type": "string"
        }
      ],
      "name": "setName",
      "outputs": [],
      "stateMutability": "nonpayable",
      "type": "function"
    },
    {
      "inputs": [],
      "name": "getHash",
      "outputs": [
        {
          "internalType": "string[]",
          "name": "",
          "type": "string[]"
        }
      ],
      "stateMutability": "view",
      "type": "function",
      "constant": true
    },
    {
      "inputs": [
        {
          "internalType": "string",
          "name": "_imgHash",
          "type": "string"
        }
      ],
      "name": "set",
      "outputs": [],
      "stateMutability": "nonpayable",
      "type": "function"
    },
    {
      "inputs": [],
      "name": "get",
      "outputs": [
        {
          "internalType": "string",
          "name": "",
          "type": "string"
        }
      ],
      "stateMutability": "view",
      "type": "function",
      "constant": true
    },
    {
      "inputs": [
        {
          "internalType": "string",
          "name": "_imgHash",
          "type": "string"
        },
        {
          "internalType": "string",
          "name": "_imgName",
          "type": "string"
        }
      ],
      "name": "setImgHash",
      "outputs": [],
      "stateMutability": "nonpayable",
      "type": "function"
    },
    {
      "inputs": [
        {
          "internalType": "uint256",
          "name": "_index",
          "type": "uint256"
        }
      ],
      "name": "getImgHash",
      "outputs": [
        {
          "internalType": "string",
          "name": "",
          "type": "string"
        },
        {
          "internalType": "string",
          "name": "",
          "type": "string"
        }
      ],
      "stateMutability": "view",
      "type": "function",
      "constant": true
    }
  ],
  "bytecode": "0x608060405234801561001057600080fd5b50610953806100206000396000f3fe608060405234801561001057600080fd5b50600436106100bb576000357c0100000000000000000000000000000000000000000000000000000000900480637d7ead00116100835780637d7ead001461013c578063863ab9991461014f578063c47f002714610162578063d13319c414610175578063d61382dd1461018a576100bb565b80631ed83fd4146100c0578063348a71cb146100d55780634ed3885e146100f35780636abeb646146101065780636d4ce63c14610127575b600080fd5b6100d36100ce36600461076d565b61019d565b005b6100dd6101ea565b6040516100ea9190610914565b60405180910390f35b6100d361010136600461076d565b6101f0565b610119610114366004610809565b610207565b6040516100ea9291906108e6565b61012f610360565b6040516100ea91906108cc565b6100d361014a3660046107a8565b6103f7565b61012f61015d366004610809565b610489565b6100d361017036600461076d565b61052f565b61017d610572565b6040516100ea919061086c565b61012f610198366004610809565b61064a565b6002805460018101825560009190915281516101e0917f405787fa12a823e0f2b7631cc41b3ba8828b3321ca811111fa75cd3aa3bb5ace01906020840190610657565b5050600254600155565b60015481565b8051610203906000906020840190610657565b5050565b6060806003838154811061021757fe5b906000526020600020016002848154811061022e57fe5b600091825260209182902083546040805160026001841615610100026000190190931692909204601f81018690048602830186019091528082529290910192909184918301828280156102c25780601f10610297576101008083540402835291602001916102c2565b820191906000526020600020905b8154815290600101906020018083116102a557829003601f168201915b5050845460408051602060026001851615610100026000190190941693909304601f8101849004840282018401909252818152959750869450925084019050828280156103505780601f1061032557610100808354040283529160200191610350565b820191906000526020600020905b81548152906001019060200180831161033357829003601f168201915b5050505050905091509150915091565b60008054604080516020601f60026000196101006001881615020190951694909404938401819004810282018101909252828152606093909290918301828280156103ec5780601f106103c1576101008083540402835291602001916103ec565b820191906000526020600020905b8154815290600101906020018083116103cf57829003601f168201915b505050505090505b90565b60028054600181018255600091909152825161043a917f405787fa12a823e0f2b7631cc41b3ba8828b3321ca811111fa75cd3aa3bb5ace01906020850190610657565b5060038054600181018255600091909152815161047e917fc2575a0e9e593c00f959f8c92f12db2869c3395a3b0502d05e2516446f71f85b01906020840190610657565b505060025460015550565b6002818154811061049657fe5b600091825260209182902001805460408051601f60026000196101006001871615020190941693909304928301859004850281018501909152818152935090918301828280156105275780601f106104fc57610100808354040283529160200191610527565b820191906000526020600020905b81548152906001019060200180831161050a57829003601f168201915b505050505081565b600380546001810182556000919091528151610203917fc2575a0e9e593c00f959f8c92f12db2869c3395a3b0502d05e2516446f71f85b01906020840190610657565b60606002805480602002602001604051908101604052809291908181526020016000905b828210156106415760008481526020908190208301805460408051601f600260001961010060018716150201909416939093049283018590048502810185019091528181529283018282801561062d5780601f106106025761010080835404028352916020019161062d565b820191906000526020600020905b81548152906001019060200180831161061057829003601f168201915b505050505081526020019060010190610596565b50505050905090565b6003818154811061049657fe5b828054600181600116156101000203166002900490600052602060002090601f016020900481019282601f1061069857805160ff19168380011785556106c5565b828001600101855582156106c5579182015b828111156106c55782518255916020019190600101906106aa565b506106d19291506106d5565b5090565b6103f491905b808211156106d157600081556001016106db565b600082601f8301126106ff578081fd5b813567ffffffffffffffff80821115610716578283fd5b604051601f8301601f191681016020018281118282101715610736578485fd5b60405282815292508284830160200186101561075157600080fd5b8260208601602083013760006020848301015250505092915050565b60006020828403121561077e578081fd5b813567ffffffffffffffff811115610794578182fd5b6107a0848285016106ef565b949350505050565b600080604083850312156107ba578081fd5b823567ffffffffffffffff808211156107d1578283fd5b6107dd868387016106ef565b935060208501359150808211156107f2578283fd5b506107ff858286016106ef565b9150509250929050565b60006020828403121561081a578081fd5b5035919050565b60008151808452815b818110156108465760208185018101518683018201520161082a565b818111156108575782602083870101525b50601f01601f19169290920160200192915050565b6000602080830181845280855180835260408601915060408482028701019250838701855b828110156108bf57603f198886030184526108ad858351610821565b94509285019290850190600101610891565b5092979650505050505050565b6000602082526108df6020830184610821565b9392505050565b6000604082526108f96040830185610821565b828103602084015261090b8185610821565b95945050505050565b9081526020019056fea2646970667358221220cfaceb9d609a88892af2e7ee0229ba5dcc0962e3599d3d2dad21ceff170aa8c664736f6c63430006010033",
  "source": "pragma solidity ^0.6.0;\r\npragma experimental ABIEncoderV2;\r\n\r\ncontract Image {\r\n    string imgHash;\r\n\r\n    /*uint public numHashes;\r\n    string [] public ImageHashes;\r\n\r\n    function setHash(string memory _imgHash) public {\r\n        ImageHashes.push(_imgHash);\r\n        numHashes = ImageHashes.length;\r\n    }\r\n\r\n    function getHash() public view returns(string[] memory){\r\n        return ImageHashes;\r\n    }\r\n\r\n    function set(string memory _imgHash) public {\r\n        imgHash =  _imgHash;\r\n    }\r\n\r\n    function get() public view returns(string memory){\r\n        return imgHash;\r\n    }*/\r\n    uint public numHashes;\r\n    string [] public ImageHashes;\r\n    string [] public ImageName;\r\n\r\n    function setHash(string memory _imgHash) public {\r\n        ImageHashes.push(_imgHash);\r\n        numHashes = ImageHashes.length;\r\n    }\r\n    \r\n    function setName(string memory _imgName) public {\r\n        ImageName.push(_imgName);\r\n    }\r\n\r\n    function getHash() public view returns(string[] memory){\r\n        return ImageHashes;\r\n    }\r\n\r\n    function set(string memory _imgHash) public {\r\n        imgHash =  _imgHash;\r\n    }\r\n\r\n    function get() public view returns(string memory){\r\n        return imgHash;\r\n    }\r\n    \r\n    function setImgHash(string memory _imgHash, string memory _imgName) public {\r\n        ImageHashes.push(_imgHash);\r\n        ImageName.push(_imgName);\r\n        numHashes = ImageHashes.length;\r\n    }\r\n\r\n    function getImgHash(uint _index) public view returns(string memory, string memory) {\r\n        return (ImageName[_index], ImageHashes[_index]); \r\n    }\r\n}\r\n\r\n\r\n\r\n\r\n/*\r\npragma solidity ^0.6.0;\r\n\r\ncontract Image {\r\n    string ipfsHash;\r\n\r\n    function set(string memory x) public {\r\n        ipfsHash = x;\r\n    }\r\n\r\n    function get() public view returns (string memory) {\r\n        return ipfsHash;\r\n    }\r\n}\r\n\r\n*/",
  "sourcePath": "C:/Users/Scott/Desktop/Software Project - NFSA/NFSA/contracts/Image.sol",
  "compiler": {
    "name": "solc",
    "version": "0.6.1+commit.e6f7d5a4.Emscripten.clang"
  },
  "schemaVersion": "3.4.0",
  "updatedAt": "2021-05-25T11:41:02.143Z",
  "networkType": "ethereum",
  "devdoc": {
    "methods": {}
  },
  "userdoc": {
    "methods": {}
  }
}