{
  "contractName": "Item",
  "abi": [
    {
      "inputs": [
        {
          "internalType": "contract ItemManager",
          "name": "_parentContract",
          "type": "address"
        },
        {
          "internalType": "uint256",
          "name": "_priceInWei",
          "type": "uint256"
        },
        {
          "internalType": "uint256",
          "name": "_index",
          "type": "uint256"
        }
      ],
      "stateMutability": "nonpayable",
      "type": "constructor"
    },
    {
      "stateMutability": "nonpayable",
      "type": "fallback"
    },
    {
      "inputs": [],
      "name": "index",
      "outputs": [
        {
          "internalType": "uint256",
          "name": "",
          "type": "uint256"
        }
      ],
      "stateMutability": "view",
      "type": "function"
    },
    {
      "inputs": [],
      "name": "priceInWei",
      "outputs": [
        {
          "internalType": "uint256",
          "name": "",
          "type": "uint256"
        }
      ],
      "stateMutability": "view",
      "type": "function"
    },
    {
      "inputs": [],
      "name": "pricePaid",
      "outputs": [
        {
          "internalType": "uint256",
          "name": "",
          "type": "uint256"
        }
      ],
      "stateMutability": "view",
      "type": "function"
    },
    {
      "stateMutability": "payable",
      "type": "receive"
    }
  ],
  "bytecode": "0x608060405234801561001057600080fd5b506040516104bd3803806104bd8339818101604052606081101561003357600080fd5b81019080805190602001909291908051906020019092919080519060200190929190505050816000819055508060028190555082600360006101000a81548173ffffffffffffffffffffffffffffffffffffffff021916908373ffffffffffffffffffffffffffffffffffffffff160217905550505050610404806100b96000396000f3fe6080604052600436106100385760003560e01c80632986c0e51461030e5780633c8da5881461033957806389794d0014610364576102ff565b366102ff576000600154146100b5576040517f08c379a00000000000000000000000000000000000000000000000000000000081526004018080602001828103825260148152602001807f4974656d206973207061696420616c726561647900000000000000000000000081525060200191505060405180910390fd5b346000541461012c576040517f08c379a000000000000000000000000000000000000000000000000000000000815260040180806020018281038252601a8152602001807f4f6e6c792066756c6c207061796d656e747320616c6c6f77656400000000000081525060200191505060405180910390fd5b346001600082825401925050819055506000600360009054906101000a900473ffffffffffffffffffffffffffffffffffffffff1673ffffffffffffffffffffffffffffffffffffffff1634600254604051602401808281526020019150506040516020818303038152906040527f800fb83f000000000000000000000000000000000000000000000000000000007bffffffffffffffffffffffffffffffffffffffffffffffffffffffff19166020820180517bffffffffffffffffffffffffffffffffffffffffffffffffffffffff83818316178352505050506040518082805190602001908083835b6020831061023b5780518252602082019150602081019050602083039250610218565b6001836020036101000a03801982511681845116808217855250505050505090500191505060006040518083038185875af1925050503d806000811461029d576040519150601f19603f3d011682016040523d82523d6000602084013e6102a2565b606091505b50509050806102fc576040517f08c379a000000000000000000000000000000000000000000000000000000000815260040180806020018281038252602d8152602001806103a2602d913960400191505060405180910390fd5b50005b34801561030b57600080fd5b50005b34801561031a57600080fd5b5061032361038f565b6040518082815260200191505060405180910390f35b34801561034557600080fd5b5061034e610395565b6040518082815260200191505060405180910390f35b34801561037057600080fd5b5061037961039b565b6040518082815260200191505060405180910390f35b60025481565b60005481565b6001548156fe546865207472616e73616374696f6e207761736e2774207375636365737366756c2c2063616e63656c6c696e67a2646970667358221220481825ac3bdfb027540301f3e884fbc34fd0d1a28f5761bba3d5519f6ca9cbf664736f6c63430006010033",
  "source": "pragma solidity ^0.6.0;\r\n\r\nimport \"./ItemManager.sol\";\r\n\r\ncontract Item {\r\n    uint public priceInWei;\r\n    uint public pricePaid;\r\n    uint public index;\r\n    \r\n    ItemManager parentContract;\r\n    \r\n    constructor(ItemManager _parentContract, uint _priceInWei, uint _index) public {\r\n        priceInWei = _priceInWei;\r\n        index = _index;\r\n        parentContract = _parentContract;\r\n    }\r\n    \r\n    receive() external payable {\r\n        require(pricePaid == 0, \"Item is paid already\");\r\n        require(priceInWei == msg.value, \"Only full payments allowed\");\r\n        pricePaid += msg.value;\r\n        (bool success, ) = address(parentContract).call.value(msg.value)(abi.encodeWithSignature(\"triggerPayment(uint256)\",index));\r\n        require(success, \"The transaction wasn't successful, cancelling\");\r\n    }\r\n    \r\n    fallback() external {}\r\n}\r\n",
  "sourcePath": "C:\\Users\\Scott\\Desktop\\Software Project - NFSA\\NFSA\\contracts\\Item.sol",
  "compiler": {
    "name": "solc",
    "version": "0.6.1+commit.e6f7d5a4.Emscripten.clang"
  },
  "schemaVersion": "3.4.0",
  "updatedAt": "2021-05-15T03:46:11.521Z",
  "devdoc": {
    "methods": {}
  },
  "userdoc": {
    "methods": {}
  }
}