{
  "contractName": "ItemManager",
  "abi": [
    {
      "anonymous": false,
      "inputs": [
        {
          "indexed": false,
          "internalType": "uint256",
          "name": "_itemIndex",
          "type": "uint256"
        },
        {
          "indexed": false,
          "internalType": "uint256",
          "name": "_step",
          "type": "uint256"
        },
        {
          "indexed": false,
          "internalType": "address",
          "name": "_itemAddress",
          "type": "address"
        }
      ],
      "name": "SupplyChainStep",
      "type": "event"
    },
    {
      "inputs": [],
      "name": "isOwner",
      "outputs": [
        {
          "internalType": "bool",
          "name": "",
          "type": "bool"
        }
      ],
      "stateMutability": "view",
      "type": "function",
      "constant": true
    },
    {
      "inputs": [
        {
          "internalType": "uint256",
          "name": "",
          "type": "uint256"
        }
      ],
      "name": "items",
      "outputs": [
        {
          "internalType": "contract Item",
          "name": "_item",
          "type": "address"
        },
        {
          "internalType": "string",
          "name": "_identifier",
          "type": "string"
        },
        {
          "internalType": "uint256",
          "name": "_itemPrice",
          "type": "uint256"
        },
        {
          "internalType": "enum ItemManager.SupplyChainState",
          "name": "_state",
          "type": "uint8"
        }
      ],
      "stateMutability": "view",
      "type": "function",
      "constant": true
    },
    {
      "inputs": [
        {
          "internalType": "string",
          "name": "_identifier",
          "type": "string"
        },
        {
          "internalType": "uint256",
          "name": "_itemPrice",
          "type": "uint256"
        }
      ],
      "name": "createItem",
      "outputs": [],
      "stateMutability": "nonpayable",
      "type": "function"
    },
    {
      "inputs": [
        {
          "internalType": "uint256",
          "name": "_itemIndex",
          "type": "uint256"
        }
      ],
      "name": "triggerPayment",
      "outputs": [],
      "stateMutability": "payable",
      "type": "function",
      "payable": true
    },
    {
      "inputs": [
        {
          "internalType": "uint256",
          "name": "_itemIndex",
          "type": "uint256"
        }
      ],
      "name": "triggerDelivery",
      "outputs": [],
      "stateMutability": "nonpayable",
      "type": "function"
    },
    {
      "inputs": [],
      "name": "getItems",
      "outputs": [
        {
          "internalType": "uint256",
          "name": "total",
          "type": "uint256"
        }
      ],
      "stateMutability": "view",
      "type": "function",
      "constant": true
    },
    {
      "inputs": [
        {
          "internalType": "uint256",
          "name": "_key",
          "type": "uint256"
        }
      ],
      "name": "returnMapValue",
      "outputs": [
        {
          "components": [
            {
              "internalType": "contract Item",
              "name": "_item",
              "type": "address"
            },
            {
              "internalType": "string",
              "name": "_identifier",
              "type": "string"
            },
            {
              "internalType": "uint256",
              "name": "_itemPrice",
              "type": "uint256"
            },
            {
              "internalType": "enum ItemManager.SupplyChainState",
              "name": "_state",
              "type": "uint8"
            }
          ],
          "internalType": "struct ItemManager.S_Item",
          "name": "",
          "type": "tuple"
        }
      ],
      "stateMutability": "view",
      "type": "function",
      "constant": true
    },
    {
      "inputs": [
        {
          "internalType": "uint256",
          "name": "_key",
          "type": "uint256"
        }
      ],
      "name": "getValueAtMapping",
      "outputs": [
        {
          "internalType": "string",
          "name": "",
          "type": "string"
        },
        {
          "internalType": "uint256",
          "name": "",
          "type": "uint256"
        },
        {
          "internalType": "contract Item",
          "name": "",
          "type": "address"
        }
      ],
      "stateMutability": "view",
      "type": "function",
      "constant": true
    }
  ],
  "bytecode": "0x6080604052336000806101000a81548173ffffffffffffffffffffffffffffffffffffffff021916908373ffffffffffffffffffffffffffffffffffffffff1602179055506117ac806100536000396000f3fe60806040526004361061007b5760003560e01c80638c5517421161004e5780638c551742146101435780638f32d59b1461016c578063bfb231d214610197578063cd31831e146101d75761007b565b806303dae8a014610080578063410d59cc146100bf578063698a4b9a146100ea578063800fb83f14610127575b600080fd5b34801561008c57600080fd5b506100a760048036036100a29190810190610caa565b610200565b6040516100b693929190610fc6565b60405180910390f35b3480156100cb57600080fd5b506100d4610312565b6040516100e19190611086565b60405180910390f35b3480156100f657600080fd5b50610111600480360361010c9190810190610caa565b61031c565b60405161011e9190611064565b60405180910390f35b610141600480360361013c9190810190610caa565b610478565b005b34801561014f57600080fd5b5061016a60048036036101659190810190610c56565b610625565b005b34801561017857600080fd5b50610181610809565b60405161018e9190610f28565b60405180910390f35b3480156101a357600080fd5b506101be60048036036101b99190810190610caa565b610860565b6040516101ce9493929190610f7a565b60405180910390f35b3480156101e357600080fd5b506101fe60048036036101f99190810190610caa565b610955565b005b60606000806001600085815260200190815260200160002060010160016000868152602001908152602001600020600201546001600087815260200190815260200160002060000160009054906101000a900473ffffffffffffffffffffffffffffffffffffffff16828054600181600116156101000203166002900480601f0160208091040260200160405190810160405280929190818152602001828054600181600116156101000203166002900480156102fe5780601f106102d3576101008083540402835291602001916102fe565b820191906000526020600020905b8154815290600101906020018083116102e157829003601f168201915b505050505092509250925092509193909250565b6000600254905090565b610324610af2565b600160008381526020019081526020016000206040518060800160405290816000820160009054906101000a900473ffffffffffffffffffffffffffffffffffffffff1673ffffffffffffffffffffffffffffffffffffffff1673ffffffffffffffffffffffffffffffffffffffff168152602001600182018054600181600116156101000203166002900480601f0160208091040260200160405190810160405280929190818152602001828054600181600116156101000203166002900480156104315780601f1061040657610100808354040283529160200191610431565b820191906000526020600020905b81548152906001019060200180831161041457829003601f168201915b50505050508152602001600282015481526020016003820160009054906101000a900460ff16600281111561046257fe5b600281111561046d57fe5b815250509050919050565b346001600083815260200190815260200160002060020154146104d0576040517f08c379a00000000000000000000000000000000000000000000000000000000081526004016104c790611024565b60405180910390fd5b600060028111156104dd57fe5b6001600083815260200190815260200160002060030160009054906101000a900460ff16600281111561050c57fe5b1461054c576040517f08c379a000000000000000000000000000000000000000000000000000000000815260040161054390611004565b60405180910390fd5b600180600083815260200190815260200160002060030160006101000a81548160ff0219169083600281111561057e57fe5b02179055507fa4035636e99f06b7651a604c1019fa4e8779fe68ef27eeb74dff2de348f6199b816001600084815260200190815260200160002060030160009054906101000a900460ff1660028111156105d457fe5b6001600085815260200190815260200160002060000160009054906101000a900473ffffffffffffffffffffffffffffffffffffffff1660405161061a939291906110a1565b60405180910390a150565b61062d610809565b61066c576040517f08c379a000000000000000000000000000000000000000000000000000000000815260040161066390611044565b60405180910390fd5b6000308260025460405161067f90610b3b565b61068b93929190610f43565b604051809103906000f0801580156106a7573d6000803e3d6000fd5b5090508060016000600254815260200190815260200160002060000160006101000a81548173ffffffffffffffffffffffffffffffffffffffff021916908373ffffffffffffffffffffffffffffffffffffffff16021790555082600160006002548152602001908152602001600020600101908051906020019061072d929190610b48565b508160016000600254815260200190815260200160002060020181905550600060016000600254815260200190815260200160002060030160006101000a81548160ff0219169083600281111561078057fe5b02179055507fa4035636e99f06b7651a604c1019fa4e8779fe68ef27eeb74dff2de348f6199b60025460016000600254815260200190815260200160002060030160009054906101000a900460ff1660028111156107da57fe5b836040516107ea939291906110a1565b60405180910390a1600260008154809291906001019190505550505050565b60008060009054906101000a900473ffffffffffffffffffffffffffffffffffffffff1673ffffffffffffffffffffffffffffffffffffffff163373ffffffffffffffffffffffffffffffffffffffff1614905090565b60016020528060005260406000206000915090508060000160009054906101000a900473ffffffffffffffffffffffffffffffffffffffff1690806001018054600181600116156101000203166002900480601f0160208091040260200160405190810160405280929190818152602001828054600181600116156101000203166002900480156109325780601f1061090757610100808354040283529160200191610932565b820191906000526020600020905b81548152906001019060200180831161091557829003601f168201915b5050505050908060020154908060030160009054906101000a900460ff16905084565b61095d610809565b61099c576040517f08c379a000000000000000000000000000000000000000000000000000000000815260040161099390611044565b60405180910390fd5b600160028111156109a957fe5b6001600083815260200190815260200160002060030160009054906101000a900460ff1660028111156109d857fe5b14610a18576040517f08c379a0000000000000000000000000000000000000000000000000000000008152600401610a0f90611004565b60405180910390fd5b60026001600083815260200190815260200160002060030160006101000a81548160ff02191690836002811115610a4b57fe5b02179055507fa4035636e99f06b7651a604c1019fa4e8779fe68ef27eeb74dff2de348f6199b816001600084815260200190815260200160002060030160009054906101000a900460ff166002811115610aa157fe5b6001600085815260200190815260200160002060000160009054906101000a900473ffffffffffffffffffffffffffffffffffffffff16604051610ae7939291906110a1565b60405180910390a150565b6040518060800160405280600073ffffffffffffffffffffffffffffffffffffffff168152602001606081526020016000815260200160006002811115610b3557fe5b81525090565b6104bd806112ba83390190565b828054600181600116156101000203166002900490600052602060002090601f016020900481019282601f10610b8957805160ff1916838001178555610bb7565b82800160010185558215610bb7579182015b82811115610bb6578251825591602001919060010190610b9b565b5b509050610bc49190610bc8565b5090565b610bea91905b80821115610be6576000816000905550600101610bce565b5090565b90565b600082601f830112610bfe57600080fd5b8135610c11610c0c82611105565b6110d8565b91508082526020830160208301858383011115610c2d57600080fd5b610c38838284611242565b50505092915050565b600081359050610c50816112a2565b92915050565b60008060408385031215610c6957600080fd5b600083013567ffffffffffffffff811115610c8357600080fd5b610c8f85828601610bed565b9250506020610ca085828601610c41565b9150509250929050565b600060208284031215610cbc57600080fd5b6000610cca84828501610c41565b91505092915050565b610cdc816111b2565b82525050565b610ceb81611169565b82525050565b610cfa816111c4565b82525050565b610d09816111e8565b82525050565b610d18816111e8565b82525050565b610d278161120c565b82525050565b610d368161120c565b82525050565b6000610d478261113c565b610d518185611158565b9350610d61818560208601611251565b610d6a81611284565b840191505092915050565b6000610d8082611131565b610d8a8185611147565b9350610d9a818560208601611251565b610da381611284565b840191505092915050565b6000610db982611131565b610dc38185611158565b9350610dd3818560208601611251565b610ddc81611284565b840191505092915050565b6000610df4601c83611158565b91507f4974656d206973206675727468657220696e2074686520636861696e000000006000830152602082019050919050565b6000610e34601b83611158565b91507f4f6e6c792066756c6c207061796d656e747320616363657074656400000000006000830152602082019050919050565b6000610e74601583611158565b91507f596f7520617265206e6f7420746865206f776e657200000000000000000000006000830152602082019050919050565b6000608083016000830151610ebf6000860182610d00565b5060208301518482036020860152610ed78282610d75565b9150506040830151610eec6040860182610f0a565b506060830151610eff6060860182610d1e565b508091505092915050565b610f13816111a8565b82525050565b610f22816111a8565b82525050565b6000602082019050610f3d6000830184610ce2565b92915050565b6000606082019050610f586000830186610cf1565b610f656020830185610f19565b610f726040830184610f19565b949350505050565b6000608082019050610f8f6000830187610d0f565b8181036020830152610fa18186610dae565b9050610fb06040830185610f19565b610fbd6060830184610d2d565b95945050505050565b60006060820190508181036000830152610fe08186610d3c565b9050610fef6020830185610f19565b610ffc6040830184610d0f565b949350505050565b6000602082019050818103600083015261101d81610de7565b9050919050565b6000602082019050818103600083015261103d81610e27565b9050919050565b6000602082019050818103600083015261105d81610e67565b9050919050565b6000602082019050818103600083015261107e8184610ea7565b905092915050565b600060208201905061109b6000830184610f19565b92915050565b60006060820190506110b66000830186610f19565b6110c36020830185610f19565b6110d06040830184610cd3565b949350505050565b6000604051905081810181811067ffffffffffffffff821117156110fb57600080fd5b8060405250919050565b600067ffffffffffffffff82111561111c57600080fd5b601f19601f8301169050602081019050919050565b600081519050919050565b600081519050919050565b600082825260208201905092915050565b600082825260208201905092915050565b60008115159050919050565b600081905061118382611295565b919050565b600073ffffffffffffffffffffffffffffffffffffffff82169050919050565b6000819050919050565b60006111bd8261121e565b9050919050565b60006111cf826111d6565b9050919050565b60006111e182611188565b9050919050565b60006111f3826111fa565b9050919050565b600061120582611188565b9050919050565b600061121782611175565b9050919050565b600061122982611230565b9050919050565b600061123b82611188565b9050919050565b82818337600083830152505050565b60005b8381101561126f578082015181840152602081019050611254565b8381111561127e576000848401525b50505050565b6000601f19601f8301169050919050565b6003811061129f57fe5b50565b6112ab816111a8565b81146112b657600080fd5b5056fe608060405234801561001057600080fd5b506040516104bd3803806104bd8339818101604052606081101561003357600080fd5b81019080805190602001909291908051906020019092919080519060200190929190505050816000819055508060028190555082600360006101000a81548173ffffffffffffffffffffffffffffffffffffffff021916908373ffffffffffffffffffffffffffffffffffffffff160217905550505050610404806100b96000396000f3fe6080604052600436106100385760003560e01c80632986c0e51461030e5780633c8da5881461033957806389794d0014610364576102ff565b366102ff576000600154146100b5576040517f08c379a00000000000000000000000000000000000000000000000000000000081526004018080602001828103825260148152602001807f4974656d206973207061696420616c726561647900000000000000000000000081525060200191505060405180910390fd5b346000541461012c576040517f08c379a000000000000000000000000000000000000000000000000000000000815260040180806020018281038252601a8152602001807f4f6e6c792066756c6c207061796d656e747320616c6c6f77656400000000000081525060200191505060405180910390fd5b346001600082825401925050819055506000600360009054906101000a900473ffffffffffffffffffffffffffffffffffffffff1673ffffffffffffffffffffffffffffffffffffffff1634600254604051602401808281526020019150506040516020818303038152906040527f800fb83f000000000000000000000000000000000000000000000000000000007bffffffffffffffffffffffffffffffffffffffffffffffffffffffff19166020820180517bffffffffffffffffffffffffffffffffffffffffffffffffffffffff83818316178352505050506040518082805190602001908083835b6020831061023b5780518252602082019150602081019050602083039250610218565b6001836020036101000a03801982511681845116808217855250505050505090500191505060006040518083038185875af1925050503d806000811461029d576040519150601f19603f3d011682016040523d82523d6000602084013e6102a2565b606091505b50509050806102fc576040517f08c379a000000000000000000000000000000000000000000000000000000000815260040180806020018281038252602d8152602001806103a2602d913960400191505060405180910390fd5b50005b34801561030b57600080fd5b50005b34801561031a57600080fd5b5061032361038f565b6040518082815260200191505060405180910390f35b34801561034557600080fd5b5061034e610395565b6040518082815260200191505060405180910390f35b34801561037057600080fd5b5061037961039b565b6040518082815260200191505060405180910390f35b60025481565b60005481565b6001548156fe546865207472616e73616374696f6e207761736e2774207375636365737366756c2c2063616e63656c6c696e67a26469706673582212209814214e6f391c9ac694bc6f49e566590b4d038b4c57bb5616883b81632a244e64736f6c63430006010033a2646970667358221220405d4efc1d9c77ba8ea1964034f30b7a50c111ee48f69dde0c8a5d4230ebe2ff64736f6c63430006010033",
  "source": "pragma solidity ^0.6.0;\r\npragma experimental ABIEncoderV2;\r\n\r\nimport \"./Ownable.sol\";\r\nimport \"./Item.sol\";\r\n\r\ncontract ItemManager is Ownable {\r\n    \r\n    enum SupplyChainState{Created, Paid, Delivered}\r\n    \r\n    struct S_Item {\r\n        Item _item;\r\n        string _identifier;\r\n        uint _itemPrice;\r\n        ItemManager.SupplyChainState _state;\r\n    }\r\n    \r\n    mapping(uint => S_Item) public items;\r\n    uint itemIndex;\r\n    \r\n    event SupplyChainStep(uint _itemIndex, uint _step, address _itemAddress);\r\n    \r\n    function createItem(string memory _identifier, uint _itemPrice) public onlyOwner {\r\n        Item item = new Item(this, _itemPrice, itemIndex);\r\n        items[itemIndex]._item = item;\r\n        items[itemIndex]._identifier = _identifier;\r\n        items[itemIndex]._itemPrice = _itemPrice;\r\n        items[itemIndex]._state = SupplyChainState.Created;\r\n        emit SupplyChainStep(itemIndex, uint(items[itemIndex]._state), address(item));\r\n        itemIndex++;\r\n    }\r\n    \r\n    function triggerPayment(uint _itemIndex) public payable {\r\n        require(items[_itemIndex]._itemPrice == msg.value, \"Only full payments accepted\");\r\n        require(items[_itemIndex]._state == SupplyChainState.Created, \"Item is further in the chain\");\r\n        items[_itemIndex]._state = SupplyChainState.Paid;\r\n        emit SupplyChainStep(_itemIndex, uint(items[_itemIndex]._state), address(items[_itemIndex]._item));\r\n    }\r\n    \r\n    function triggerDelivery(uint _itemIndex) public onlyOwner {\r\n        require(items[_itemIndex]._state == SupplyChainState.Paid, \"Item is further in the chain\");\r\n        items[_itemIndex]._state = SupplyChainState.Delivered;\r\n        emit SupplyChainStep(_itemIndex, uint(items[_itemIndex]._state), address(items[_itemIndex]._item));\r\n    }\r\n\r\n    function getItems() public view returns(uint total){\r\n        return itemIndex;\r\n    }\r\n\r\n    function returnMapValue(uint _key) public view returns(S_Item memory) {\r\n        return items[_key];\r\n    }\r\n\r\n    function getValueAtMapping(uint _key)  public  view  returns(string memory, uint, Item) {\r\n      return (items[_key]._identifier, items[_key]._itemPrice, items[_key]._item);\r\n    }\r\n}",
  "sourcePath": "C:\\Users\\Scott\\Desktop\\Software Project - NFSA\\NFSA\\contracts\\ItemManager.sol",
  "compiler": {
    "name": "solc",
    "version": "0.6.1+commit.e6f7d5a4.Emscripten.clang"
  },
  "schemaVersion": "3.4.0",
  "updatedAt": "2021-05-19T11:34:11.531Z",
  "networkType": "ethereum",
  "devdoc": {
    "methods": {}
  },
  "userdoc": {
    "methods": {}
  }
}