{
  "contractName": "SplitFunds",
  "abi": [
    {
      "inputs": [
        {
          "internalType": "address[]",
          "name": "payees",
          "type": "address[]"
        },
        {
          "internalType": "uint256[]",
          "name": "shares",
          "type": "uint256[]"
        }
      ],
      "stateMutability": "payable",
      "type": "constructor"
    },
    {
      "anonymous": false,
      "inputs": [
        {
          "indexed": false,
          "internalType": "address",
          "name": "account",
          "type": "address"
        },
        {
          "indexed": false,
          "internalType": "uint256",
          "name": "shares",
          "type": "uint256"
        }
      ],
      "name": "PayeeAdded",
      "type": "event"
    },
    {
      "anonymous": false,
      "inputs": [
        {
          "indexed": false,
          "internalType": "address",
          "name": "from",
          "type": "address"
        },
        {
          "indexed": false,
          "internalType": "uint256",
          "name": "amount",
          "type": "uint256"
        }
      ],
      "name": "PaymentReceived",
      "type": "event"
    },
    {
      "anonymous": false,
      "inputs": [
        {
          "indexed": false,
          "internalType": "address",
          "name": "to",
          "type": "address"
        },
        {
          "indexed": false,
          "internalType": "uint256",
          "name": "amount",
          "type": "uint256"
        }
      ],
      "name": "PaymentReleased",
      "type": "event"
    },
    {
      "inputs": [
        {
          "internalType": "uint256",
          "name": "index",
          "type": "uint256"
        }
      ],
      "name": "payee",
      "outputs": [
        {
          "internalType": "address",
          "name": "",
          "type": "address"
        }
      ],
      "stateMutability": "view",
      "type": "function"
    },
    {
      "inputs": [
        {
          "internalType": "address payable",
          "name": "account",
          "type": "address"
        }
      ],
      "name": "release",
      "outputs": [],
      "stateMutability": "nonpayable",
      "type": "function"
    },
    {
      "inputs": [
        {
          "internalType": "address",
          "name": "account",
          "type": "address"
        }
      ],
      "name": "released",
      "outputs": [
        {
          "internalType": "uint256",
          "name": "",
          "type": "uint256"
        }
      ],
      "stateMutability": "view",
      "type": "function"
    },
    {
      "inputs": [
        {
          "internalType": "address",
          "name": "account",
          "type": "address"
        }
      ],
      "name": "shares",
      "outputs": [
        {
          "internalType": "uint256",
          "name": "",
          "type": "uint256"
        }
      ],
      "stateMutability": "view",
      "type": "function"
    },
    {
      "inputs": [],
      "name": "totalReleased",
      "outputs": [
        {
          "internalType": "uint256",
          "name": "",
          "type": "uint256"
        }
      ],
      "stateMutability": "view",
      "type": "function"
    },
    {
      "inputs": [],
      "name": "totalShares",
      "outputs": [
        {
          "internalType": "uint256",
          "name": "",
          "type": "uint256"
        }
      ],
      "stateMutability": "view",
      "type": "function"
    },
    {
      "stateMutability": "payable",
      "type": "receive"
    }
  ],
  "bytecode": "0x608060405260405162000dca38038062000dca833981016040819052620000269162000375565b818180518251146200006f576040517f08c379a00000000000000000000000000000000000000000000000000000000081526004016200006690620004f1565b60405180910390fd5b6000825111620000ad576040517f08c379a00000000000000000000000000000000000000000000000000000000081526004016200006690620005ab565b60005b82518110156200010657620000fd838281518110620000cb57fe5b6020026020010151838381518110620000e057fe5b602002602001015162000111640100000000026401000000009004565b600101620000b0565b505050505062000660565b600160a060020a03821662000154576040517f08c379a000000000000000000000000000000000000000000000000000000000815260040162000066906200045d565b6000811162000191576040517f08c379a00000000000000000000000000000000000000000000000000000000081526004016200006690620005e2565b600160a060020a03821660009081526002602052604090205415620001e4576040517f08c379a000000000000000000000000000000000000000000000000000000000815260040162000066906200054e565b60048054600181019091557f8a35acfbc15ff81a39ae7d344fd709f28e8600b4aa8c65c6b64bfe7fe36bd19b018054600160a060020a031916600160a060020a0384169081179091556000908152600260205260408120829055546200025990826401000000006200029c8102620003a61704565b6000556040517f40c340f65e17194d14ddddb073d3c9f888e3cb52b5aae0c6c7706b4fbc905fac9062000290908490849062000444565b60405180910390a15050565b600082820183811015620002de576040517f08c379a00000000000000000000000000000000000000000000000000000000081526004016200006690620004ba565b90505b92915050565b8051600160a060020a0381168114620002e157600080fd5b600082601f83011262000310578081fd5b815162000327620003218262000640565b62000619565b8181529150602080830190848101818402860182018710156200034957600080fd5b60005b848110156200036a578151845292820192908201906001016200034c565b505050505092915050565b6000806040838503121562000388578182fd5b82516001604060020a03808211156200039f578384fd5b81850186601f820112620003b1578485fd5b80519250620003c4620003218462000640565b80848252602080830192508084018a828389028701011115620003e5578889fd5b8894505b868510156200041357620003fe8b82620002e7565b845260019490940193928101928101620003e9565b5088015190965093505050808211156200042b578283fd5b506200043a85828601620002ff565b9150509250929050565b600160a060020a03929092168252602082015260400190565b6020808252602c908201527f5061796d656e7453706c69747465723a206163636f756e74206973207468652060408201527f7a65726f20616464726573730000000000000000000000000000000000000000606082015260800190565b6020808252601b908201527f536166654d6174683a206164646974696f6e206f766572666c6f770000000000604082015260600190565b60208082526032908201527f5061796d656e7453706c69747465723a2070617965657320616e64207368617260408201527f6573206c656e677468206d69736d617463680000000000000000000000000000606082015260800190565b6020808252602b908201527f5061796d656e7453706c69747465723a206163636f756e7420616c726561647960408201527f2068617320736861726573000000000000000000000000000000000000000000606082015260800190565b6020808252601a908201527f5061796d656e7453706c69747465723a206e6f20706179656573000000000000604082015260600190565b6020808252601d908201527f5061796d656e7453706c69747465723a20736861726573206172652030000000604082015260600190565b6040518181016001604060020a03811182821017156200063857600080fd5b604052919050565b60006001604060020a0382111562000656578081fd5b5060209081020190565b61075a80620006706000396000f3fe608060405260043610610075577c010000000000000000000000000000000000000000000000000000000060003504631916558781146100c15780633a98ef39146100e35780638b83209b1461010e5780639852595c1461013b578063ce7c2ac21461015b578063e33b7de31461017b576100bc565b366100bc577f6ef95f06320e7a25a04a175ca677b7052bdd97131872c2192525a629f51be7706100a3610190565b346040516100b2929190610549565b60405180910390a1005b600080fd5b3480156100cd57600080fd5b506100e16100dc366004610501565b610194565b005b3480156100ef57600080fd5b506100f861033a565b6040516101059190610703565b60405180910390f35b34801561011a57600080fd5b5061012e61012936600461051d565b610340565b6040516101059190610535565b34801561014757600080fd5b506100f8610156366004610501565b61036a565b34801561016757600080fd5b506100f8610176366004610501565b610385565b34801561018757600080fd5b506100f86103a0565b3390565b600160a060020a0381166000908152600260205260409020546101d55760405160e560020a62461bcd0281526004016101cc906105ec565b60405180910390fd5b6001546000906101ed9030319063ffffffff6103a616565b600160a060020a0383166000908152600360209081526040808320548354600290935290832054939450919261024b929161023f9161023390879063ffffffff6103d716565b9063ffffffff61041416565b9063ffffffff61045616565b90508061026d5760405160e560020a62461bcd0281526004016101cc90610649565b600160a060020a038316600090815260036020526040902054610296908263ffffffff6103a616565b600160a060020a0384166000908152600360205260409020556001546102c2908263ffffffff6103a616565b600155604051600160a060020a0384169082156108fc029083906000818181858888f193505050501580156102fb573d6000803e3d6000fd5b507fdf20fd1e76bc69d672e4814fafb2c449bba3a5369d8359adf9e05e6fde87b056838260405161032d929190610549565b60405180910390a1505050565b60005490565b60006004828154811061034f57fe5b600091825260209091200154600160a060020a031692915050565b600160a060020a031660009081526003602052604090205490565b600160a060020a031660009081526002602052604090205490565b60015490565b6000828201838110156103ce5760405160e560020a62461bcd0281526004016101cc906105b5565b90505b92915050565b6000826103e6575060006103d1565b828202828482816103f357fe5b04146103ce5760405160e560020a62461bcd0281526004016101cc906106a6565b60006103ce83836040518060400160405280601a81526020017f536166654d6174683a206469766973696f6e206279207a65726f000000000000815250610498565b60006103ce83836040518060400160405280601e81526020017f536166654d6174683a207375627472616374696f6e206f766572666c6f7700008152506104d2565b600081836104bc5760405160e560020a62461bcd0281526004016101cc9190610562565b5060008385816104c857fe5b0495945050505050565b600081848411156104f95760405160e560020a62461bcd0281526004016101cc9190610562565b505050900390565b600060208284031215610512578081fd5b81356103ce8161070c565b60006020828403121561052e578081fd5b5035919050565b600160a060020a0391909116815260200190565b600160a060020a03929092168252602082015260400190565b6000602082528251806020840152815b8181101561058f5760208186018101516040868401015201610572565b818111156105a05782604083860101525b50601f01601f19169190910160400192915050565b6020808252601b908201527f536166654d6174683a206164646974696f6e206f766572666c6f770000000000604082015260600190565b60208082526026908201527f5061796d656e7453706c69747465723a206163636f756e7420686173206e6f2060408201527f7368617265730000000000000000000000000000000000000000000000000000606082015260800190565b6020808252602b908201527f5061796d656e7453706c69747465723a206163636f756e74206973206e6f742060408201527f647565207061796d656e74000000000000000000000000000000000000000000606082015260800190565b60208082526021908201527f536166654d6174683a206d756c7469706c69636174696f6e206f766572666c6f60408201527f7700000000000000000000000000000000000000000000000000000000000000606082015260800190565b90815260200190565b600160a060020a038116811461072157600080fd5b5056fea2646970667358221220549f91bc71f4a691a1899f2be98b73dc20d0fb459bbdc1fcf41594d8cc78d39364736f6c63430006010033",
  "source": "pragma solidity ^0.6.0;\r\npragma experimental ABIEncoderV2;\r\nimport \"@openzeppelin/contracts/payment/PaymentSplitter.sol\";\r\n\r\ncontract SplitFunds is PaymentSplitter {\r\n    constructor (address[] memory payees, uint256[] memory shares)\r\n    PaymentSplitter(payees, shares)\r\n    public payable{}\r\n}",
  "sourcePath": "C:/Users/Scott/Desktop/Software Project - NFSA/NFSA/contracts/SplitFunds.sol",
  "compiler": {
    "name": "solc",
    "version": "0.6.1+commit.e6f7d5a4.Emscripten.clang"
  },
  "schemaVersion": "3.4.0",
  "updatedAt": "2021-05-25T11:36:28.726Z",
  "devdoc": {
    "methods": {
      "payee(uint256)": {
        "details": "Getter for the address of the payee number `index`."
      },
      "release(address)": {
        "details": "Triggers a transfer to `account` of the amount of Ether they are owed, according to their percentage of the total shares and their previous withdrawals."
      },
      "released(address)": {
        "details": "Getter for the amount of Ether already released to a payee."
      },
      "shares(address)": {
        "details": "Getter for the amount of shares held by an account."
      },
      "totalReleased()": {
        "details": "Getter for the total amount of Ether already released."
      },
      "totalShares()": {
        "details": "Getter for the total shares held by payees."
      }
    }
  },
  "userdoc": {
    "methods": {}
  }
}